:1000000094C4B8C4B7C4B6C4B5C40DC7B3C4B2C4ED
:10001000B1C4B0C4AFC4AEC4ADC4ACC4ABC4004082
:100020007A10F35A00A0724E18090010A5D4E80007
:1000300000E87648170000E40B54020000CA9A3B1F
:10004000000000E1F50500008096980000004042A5
:100050000F000000A0860100000010270000000033
:10006000E803000000006400000000000A00000037
:1000700000000100000000002C76D888DC674F08E3
:1000800023DFC1DFAE59E1B1B796E5E3E453C63AE9
:10009000E651997696E8E6C28426EB898C9B62ED60
:1000A000407C6FFCEFBC9C9F40F2BAA56FA5F4901A
:1000B000055A2AF75C936B6CF9676DC11BFCE0E491
:1000C0000D47FEF520E6B500D0ED902E03009435E7
:1000D00077050080841E080000204E0A000000C83A
:1000E0000C333333330F986E12831141EF8D21148B
:1000F000893BE65516CFFEE6DB18D1844B381BF75B
:100100007C1D901DA4BBE424203284725E228100F9
:10011000C9F124ECA1E53D270000000038000000F3
:1001200000003700000000000000000000005F0039
:1001300000000000000007000700000000147F140A
:100140007F14000000242A7F2A12000000231308D5
:10015000646200000036495522500000000005038B
:1001600000000000001C2241000000000041221C91
:100170000000000000082A1C2A0800000008083EB1
:100180000808000000A06000000000000008080847
:100190000808000000606000000000000020100857
:1001A00004020000003E5149453E00000000427F2D
:1001B00040000000006251494946000000224149C8
:1001C00049360000001814127F1000000027454532
:1001D00045390000003C4A494930000000017109DE
:1001E0000503000000364949493600000006494928
:1001F000291E000000003636000000000000AC6C34
:100200000000000000081422410000000014141433
:1002100014140000004122140800000000020151E3
:100220000906000000324979413E0000007E0909BC
:10023000097E0000007F494949360000003E4141E7
:1002400041220000007F4141221C0000007F4949FB
:1002500049410000007F090909010000003E4141B9
:1002600051720000007F0808087F000000417F41B4
:1002700000000000002040413F010000007F081402
:1002800022410000007F404040400000007F020CFF
:10029000027F0000007F0408107F0000003E414103
:1002A000413E0000007F090909060000003E41515F
:1002B000215E0000007F09192946000000264949F7
:1002C000493200000001017F01010000003F404071
:1002D000403F0000001F2040201F0000003F40382A
:1002E000403F00000063140814630000000304781A
:1002F000040300000061514945430000007F414173
:100300000000000000020408102000000041417FAE
:100310000000000000040201020400000080808050
:1003200080800000000102040000000000205454FE
:1003300054780000007F48444438000000384444AA
:100340002800000000384444487F0000003854541E
:100350005418000000087E09020000000018A4A440
:10036000A47C0000007F08040478000000007D00E9
:10037000000000000080847D00000000007F102845
:100380004400000000417F4000000000007C041891
:1003900004780000007C08047C000000003844441D
:1003A0003800000000FC2424180000000018242459
:1003B000FC00000000007C080400000000485454C9
:1003C0002400000000047F4400000000003C404086
:1003D0007C000000001C2040201C0000003C40303D
:1003E000403C00000044281028440000001CA0A04D
:1003F0007C000000004464544C4400000008364176
:100400000000000000007F000000000000413608EE
:1004100000000000000201010201000000020505C9
:100420000200000000000000360002020202020288
:100430000202020201020408102020041008010236
:1004400000000400000000000000000000000000A8
:10045000000000000000000000000000000000009C
:10046000000000000000000000000000000000008C
:10047000000000000000000000000000000000007C
:10048000000000000000000000000000000000006C
:100490000000000000000000000000000F0F0F0F20
:1004A0000F0F000000000000000000C0E0F0F0F0BE
:1004B000F0F0F0F0F0F0F0F0F0F0F0E0C00000004C
:1004C000000000FFFFFFFF0100000000000000002F
:1004D00001FFFFFFFF000000000000FFFFFFFF80A3
:1004E000000000000000000080FFFFFFFF00000090
:1004F00000000003070F0F0F0F0F0F0F0F0F0F0F4D
:100500000F0F0F0703000000000000C0E0F0F0F044
:10051000F0F0F0F0F0F0F0F0F0F0F0E0C0000000EB
:10052000000000FFFFFFFF010000000000000000CE
:1005300001FFFFFFFF000000000000FFFFFFFF8042
:10054000000000000000000080FFFFFFFF0000002F
:1005500000000003070F0F0F0F0F0F0F0F0F0F0FEC
:100560000F0F0F0703000000000000000000000054
:10057000000000000000E0F0F0E0000000000000DB
:100580000000000000000000000000000000FFFF6D
:10059000FFFF00000000000000000000000000005D
:1005A000000000000000FFFFFFFF0000000000004F
:1005B0000000000000000000000000000000030731
:1005C0000703000000000000000000E0F0F0F0F081
:1005D000F0F0F0F0F0F0F0F0F0F0F0E000000000EB
:1005E00000000081C1C0C0C0C0C0C0C0C0C0C0E168
:1005F000FFFFFFFF00000000000000FFFFFFFF877C
:1006000003030303030303030303838100000000C8
:10061000000000070F0F0F0F0F0F0F0F0F0F0F0F1F
:100620000F0F0F0700000000000000E0F0F0F0F0F6
:10063000F0F0F0F0F0F0F0F0F0F0F0E0000000008A
:1006400000000081C1C0C0C0C0C0C0C0C0C0C0E107
:10065000FFFFFF7F00000000000000818303030311
:100660000303030303030387FFFFFFFE00000000F3
:10067000000000070F0F0F0F0F0F0F0F0F0F0F0FBF
:100680000F0F0F0700000000000000E0F0F0F03056
:100690000000000000000030F0F0F0E0000000007A
:1006A000000000FFFFFFFFE0C0C0C0C0C0C0C0E04E
:1006B000FFFFFFFF00000000000000010303030331
:1006C0000303030303030307FFFFFFFF0000000012
:1006D0000000000000000000000000000000000C0E
:1006E0000F0F0F0700000000000000E0F0F0F0F036
:1006F000F0F0F0F0F0F0F0F0F0F0F0E000000000CA
:10070000000000FFFFFFFFE1C0C0C0C0C0C0C0C00C
:10071000C0C0C1810000000000000081830303030A
:100720000303030303030387FFFFFFFF0000000031
:10073000000000070F0F0F0F0F0F0F0F0F0F0F0FFE
:100740000F0F0F0700000000000000E0F0F0F0F0D5
:10075000F0F0F0F0F0F0F0F0F0F0F0E00000000069
:10076000000000FFFFFFFFE1C0C0C0C0C0C0C0C0AC
:10077000C0C0C18100000000000000FFFFFFFF8734
:100780000303030303030387FFFFFFFF00000000D1
:10079000000000070F0F0F0F0F0F0F0F0F0F0F0F9E
:1007A0000F0F0F0700000000000000E0F0F0F0F075
:1007B000F0F0F0F0F0F0F0F0F0F0F0E00000000009
:1007C0000000000101000000000000000000000126
:1007D000FFFFFFFF0000000000000000000000001D
:1007E0000000000000000000FFFFFFFF000000000D
:1007F0000000000000000000000000000000000CED
:100800000F0F0F0700000000000000E0F0F0F0F014
:10081000F0F0F0F0F0F0F0F0F0F0F0E000000000A8
:100820000000007FFFFFFFE1C0C0C0C0C0C0C0E14A
:10083000FFFFFF3F00000000000000FEFFFFFF87FA
:100840000303030303030387FFFFFFFE0000000011
:10085000000000070F0F0F0F0F0F0F0F0F0F0F0FDD
:100860000F0F0F0700000000000000E0F0F0F0F0B4
:10087000F0F0F0F0F0F0F0F0F0F0F0E00000000048
:10088000000000FFFFFFFFE1C0C0C0C0C0C0C0E16A
:10089000FFFFFFFF0000000000000001030303034F
:1008A0000303030303030307FFFFFFFF0000000030
:1008B0000000000000000000000000000000000C2C
:1008C0000F0F0F07000000000000000000000000F4
:1008D0000000000000000000000000000000000018
:1008E0000000000000000000003C7E7E7E7E3C0098
:1008F00000000000000000000000000000000000F8
:1009000000F0F8F8F8F8F000000000000000000027
:1009100000000000000000000000010101010000D3
:1009200000000000000000001F0A11241FBECFE5D8
:10093000D2E0DEBFCDBF10E0A0E6B0E0E8E7FEE128
:1009400002C005900D92A836B107D9F721E0A8E6BC
:10095000B0E001C01D92A430B207E1F714E0C5E990
:10096000D4E003C02197FE017FDAC439D107D1F763
:10097000A4D280CA45CBE091F000E13150F4EF5FA2
:10098000E093F000F0E0EF50FF4F808381E090E0D3
:10099000089590E080E008953FB7F89480916D004D
:1009A00090916E00A0916F00B091700022B708B6D0
:1009B00001FE05C02F3F19F00196A11DB11D3FBFDB
:1009C000BA2FA92F982F8827BC01CD01620F711D66
:1009D000811D911D46E0660F771F881F991F4A955C
:1009E000D1F708958F929F92AF92BF92CF92DF92EC
:1009F000EF92FF924B015C01CFDF6B017C01CCDFFA
:100A00006C197D098E099F09683E73408105910527
:100A1000B0F321E0821A9108A108B10888EEC80E4F
:100A200083E0D81EE11CF11C81149104A104B104DF
:100A300031F7FF90EF90DF90CF90BF90AF909F90F5
:100A40008F900895C09AC29ABA9AB89A8FEF8FB9C8
:100A50008AE28DB980EF8EB908954F925F926F92BE
:100A60007F928F929F92AF92BF92CF92DF92EF923E
:100A7000FF92CF93DF9300D000D000D0CDB7DEB788
:100A80009E838D836A017B01DC0114968D919D917B
:100A90000D90BC91A02D89839A83AB83BC83ED819B
:100AA000FE812081318142815381BC01CD0182D7F9
:100AB0009B01AC0169817A818B819C81F2D74B01CA
:100AC0005C01AD81BE8154968D929D92AD92BC9297
:100AD000579750964D905D906D907C905397A301E1
:100AE0009201C701B60165D7A501940141D9A301BF
:100AF000920160D76B017C01ED81FE81C486D586B1
:100B0000E686F786AC019B01C301B20152D79F77FD
:100B1000AD81BE8118962D913D914D915C911B97B1
:100B200027D92B013C01A501940160E070E080E829
:100B30009FE33FD729813A814B815C8119D99B0181
:100B4000AC01C301B20136D7ED81FE8164837583A8
:100B500086839783C08AD18AE28AF38AC701B60165
:100B600026960FB6F894DEBF0FBECDBFDF91CF91B2
:100B7000FF90EF90DF90CF90BF90AF909F908F90BD
:100B80007F906F905F904F900895C098C29AB29BEB
:100B9000FECF00C000C0C09A00C000C000009EB1DF
:100BA000892F807295FD04C094E09093030108950D
:100BB00081E00895C29AC29BFECF00C000C0000031
:100BC000C09800C000C0C298C09A779905C083E061
:100BD0008093030180E0089581E008958EB98BE24F
:100BE00000C000C000008DB9B29BFECF00C000C0A5
:100BF0008DB9769BF5CF00C000C000008FB19FEF8C
:100C00009FB9B89A0895CF92DF92EF92FF920F9317
:100C10001F93CF93DF93082F80910301816080930E
:100C200003019091F10090FD03C082608093030165
:100C3000C1DF882319F1102FC1EFD0E0DD24DA9451
:100C4000CC24C3947E018FEFE81AF80A8091030147
:100C50008370D1F1C29888818FB980EFBFDFB898D7
:100C60008EEFBCDF9091030180FF15C0892F81704A
:100C700090FF0DC081E08093030180E0DF91CF9170
:100C80001F910F91FF90EF90DF90CF90089592E029
:100C900090930301F3CF892F8570843061F48091A4
:100CA000F10081608093F100C092030183DF811124
:100CB00017C09AE0EDCF9E7F90930301E70111509A
:100CC00009F0C0CF81E0DACFB89880EF87DF888362
:100CD000113021F4DFB88EEF81DFF0CF1FB8FBCFEA
:100CE000102FC1EFD0E0EBCF8091F0001092030104
:100CF0008F5F89DF1092F000882319F046DF8111A1
:100D000003C080910301089580E00895CF93C82F18
:100D10001092F00088E78093F10080E82CDE8C2FA1
:100D20002ADECF91E1CFCF93DF93C82FD62F880F44
:100D3000880F880F8870EADF8C2F90E09695879552
:100D40008F70805FE3DF80EB8D0FDF91CF91DECF7F
:100D5000CF93C82F1092F00088E78093F10080E4D1
:100D60000ADE8C2F08DECF91BFCFDF92EF92FF9289
:100D70000F931F93CF93DF93C62F8C01D12CD1E01B
:100D8000F8018081882399F1D03189F16C2F8D2F62
:100D9000CADFF12CE12CF801808192ED980F9D3093
:100DA000B0F080E0D5DFF6E1FD15F8F4CF5F6C2FF1
:100DB0008D2FB9DFD12C8FEFE81AF80AE0E6EE1696
:100DC000F10449F7DD5FC4500F5F1F4FD9CF082EE4
:100DD000000C990B8E9760E670E035D88E0D9F1D44
:100DE000885B9B4FFC018491DDCFD394E4CFDF91EE
:100DF000CF911F910F91FF90EF90DF900895CF93C7
:100E0000DF93C0E06C2F80E08EDFD0E080E0A0DFD9
:100E1000DF5FD038D9F7CF5FC830A1F760E080E05E
:100E2000DF91CF9180CF1F920F920FB60F921124B6
:100E30002F933F938F939F93AF93BF9380916900BC
:100E400090916A00A0916B00B0916C0030916800A5
:100E500020E3230F2D3758F54096A11DB11D209397
:100E600068008093690090936A00A0936B00B09330
:100E70006C0080916D0090916E00A0916F00B09118
:100E800070000196A11DB11D80936D0090936E00BE
:100E9000A0936F00B0937000BF91AF919F918F911D
:100EA0003F912F910F900FBE0F901F90189523EB3D
:100EB000230F4196A11DB11DD2CFCF93DF93CDB7A4
:100EC000DEB72A970FB6F894DEBF0FBECDBF789479
:100ED0008AB582608ABD8AB581608ABD83B7826027
:100EE00083BF83B7816083BF89B7826089BF80B7C2
:100EF000826080BF3298319A309A379A8CB580647C
:100F00008CBD88E08093D600E7E3F4E024914DE2C5
:100F1000242E44E0342EF10184918823C9F090E01E
:100F2000880F991FFC01E25EFE4FA591B491FC0170
:100F3000E85EFE4F459154919FB7F8943C91822F03
:100F4000809583238C93FA018081282B20839FBF77
:100F500079DD78DD8EEADADE6AE070E080E090E04C
:100F600041DD8FEAD3DE6AE070E080E090E03ADDB8
:100F700086EACCDE82E08093EF0080E2C7DE82E08A
:100F8000C5DE3DDF60E080E0CEDE8DE8BFDE84E1DF
:100F9000BDDE35DF86EABADE81EAB8DE88ECB6DE91
:100FA0001092F00010ED1093F1008BE6E4DC80E08D
:100FB000E2DC9ADE1092F0001093F1008BE1DBDCB2
:100FC00080E0D9DC91DE1092F0001093F1008CE10A
:100FD000D2DC80E0D0DC88DE1092F000F0EDF093FF
:100FE000F1008BE3C8DC80DE1092710081ED80930C
:100FF000F1001092030187E006DE8111C6DDE09169
:101000007100A1E0AE0FB0E0AF50BF4F8C91A2E0F5
:10101000AE0FB0E0AF50BF4F6C91782F7093BD0012
:101020006093BC00A3E0AE0FB0E0AF50BF4F0C9197
:10103000A4E0AE0FB0E0AF50BF4F8C91102F082F3F
:101040001093BB000093BA00A5E0AE0FB0E0AF5024
:10105000BF4FEC90EA5FE0937100F0E0EF50FF4F7C
:101060008081FE2CE82E072E000C880B990BB4D53E
:1010700020E43AED4FE758E37BD62AE038EE4CE126
:1010800051E476D62B013C014092E3005092E400FB
:101090006092E5007092E600B801110F880B990B81
:1010A0009BD520E43AED4FE758E362D62AE038EECC
:1010B0004CE151E45DD64B015C018092E7009092D7
:1010C000E800A092E900B092EA00B701FF0C880B9B
:1010D000990B82D520E43AED4FE758E349D62AE050
:1010E00038EE4CE151E444D66B017C01C092EB0038
:1010F000D092EC00E092ED00F092EE00B301A2017C
:1011000082EA90E0AADC2091D7003091D80040918B
:10111000D9005091DA004DD42B013C014092CA0015
:101120005092CB006092CC007092CD00B501A4012A
:101130008AE890E092DC2091DB003091DC00409165
:10114000DD005091DE0035D44B015C018092CE0071
:101150009092CF00A092D000B092D100B701A6012A
:1011600082E790E07ADC2091DF003091E00040914E
:10117000E1005091E2001DD46B017C01C092D200CD
:10118000D092D300E092D400F092D50020E030E07D
:1011900040E251E4C301B2010DD420E030E044E369
:1011A00053E4E6D520E030E040EA51E47AD420E090
:1011B00030E044EB52E4FDD32B013C014092BE00F1
:1011C0005092BF006092C0007092C10020E030E0F9
:1011D00040E251E4C501B401EDD320E030E044E346
:1011E00053E4C6D520E030E040EA51E45AD420E090
:1011F00030E044EB52E4DDD36093C2007093C3004F
:101200008093C4009093C50020E030E040E251E4B8
:10121000C701B601CFD320E030E044E353E4A8D5C2
:1012200020E030E040EA51E43CD420E030E044EB00
:1012300052E4BFD36093C6007093C7008093C80088
:101240009093C9008E010F5F1F4F22E045E0C3015C
:10125000B20128D162E080E066DD10E000E0F80134
:10126000EC51FD4F849174DD0F5F1F4F0830110565
:10127000B1F760E0CE01019678DD6091C200709117
:10128000C3008091C4009091C5008E010F5F1F4F75
:1012900022E045E007D166E080E045DD10E000E0B7
:1012A000F801E451FD4F849153DD0F5F1F4F08306B
:1012B0001105B1F764E0CE01019657DD88E0E0E664
:1012C000F0E0DE01119601900D928A95E1F7809190
:1012D000D6008295807F826087B9369A3699FECF94
:1012E00084B165B1762F682F072E000C880B990BFF
:1012F00073D420E030E040E85AE33AD52DEC3CECE2
:101300004CE85FE335D520E030E040EA50E430D5EA
:1013100026E636E646E650E44CD320E030E040EAEC
:1013200050E426D528E939E949E15FE3BAD320E062
:1013300030E0A9013FD3A2D31CD47B0160E080E060
:10134000F2DCFE0131965F010FEF1FEFF501819195
:101350005F010530110520F4E016F1060CF08C63F6
:10136000F7DC0F5F1F4F0730110581F7E1E4F4E070
:101370008491E7E3F4E09491F101249121113CC0C0
:101380008091E3009091E400A091E500B091E60027
:101390008093D7009093D800A093D900B093DA003F
:1013A0008091E7009091E800A091E900B091EA00F7
:1013B0008093DB009093DC00A093DD00B093DE000F
:1013C0008091EB009091EC00A091ED00B091EE00C7
:1013D0008093DF009093E000A093E100B093E200DF
:1013E00064E670E080E090E0FDDA80E090E0892B38
:1013F00009F4F2CD05D6F0CD882329F08230E1F052
:1014000078F48130A9F0E22FF0E0EE0FFF1FEC5DE1
:10141000FB4FA591B4918C91982309F4B1CFE0CF03
:10142000833011F0843079F78CB58F7D8CBDEBCF94
:101430008AB58F778ABDE7CF8AB58F7DFBCFE2EA89
:10144000F0E080E090E0A0E8BFE380839183A28396
:10145000B38384839583A683B78340E050E060E044
:101460007FE34087518762877387EAE8F0E08083F3
:101470009183A283B38384839583A683B7834087B4
:10148000518762877387E2E7F0E080839183A283CC
:10149000B38384839583A683B7834087518762870C
:1014A00073870895EF920F931F93CF93DF93E80113
:1014B00034E047FD34E1042E000C550B57FF03C008
:1014C000519541955109E32E022F242FAE0107D0EB
:1014D000CE01DF91CF911F910F91EF900895A9E078
:1014E000B0E0E4E7FAE034C26A01F22EB02E102F29
:1014F000FBE3AF2EA01608F41BE31F5F012F27E0CC
:10150000AE014F5F5F4F46D1BC018981982F997022
:101510009130F1F19BE2E1FC04C09E2D9170E0FC62
:1015200039C05E2D5071E82FE87083FF45C084E01C
:10153000911101C083E0EF2DE81B8F1508F0E0E06A
:10154000D6018E2F20E2552349F1992329F0D601A7
:101550009C93C60101966C0196012D5F3F4FE2FE00
:1015600023C08EE4D6018C9391E411969C9311973D
:1015700012968C93D9018E2F90E281111AC0E20F3E
:10158000F32FF11D10828EEF9FEF2996ECE0FCC146
:101590009DE2C7CF90E2C5CF2D9381508111FCCF42
:1015A000CE0ED11CE0E0D1CF8EE6D6018C9391E631
:1015B000DCCF9D938150E1CF482F447082FF3DC026
:1015C00084E0911101C083E08F1510F4EF2DE81B2A
:1015D000D6018E2F20E2552309F1992329F0D60157
:1015E0009C93C60101966C0196012D5F3F4FE2FE70
:1015F0001BC089E4D6018C938EE411968C931197CD
:1016000086E412968C93D9018E2F90E2882309F4F8
:10161000B6CF9D938150FACF2D9381508111FCCF8D
:10162000CE0ED11CE0E0D9CF89E6D6018C938EE6B0
:1016300011968C93119786E6E4CF9B0177FF02C049
:1016400030E020E0A1E0B0E0911102C0B0E0A0E005
:10165000F9013196AE0FBF1F8B2C912CBB2009F4E2
:1016600061C05401EFEFAE1ABE0AAA0DBB1DFA16F7
:101670001B0619F014F04F2D4A1B511188C0E3FCD2
:1016800059C07601A42FB0E2A1114FC0C40ED11CE5
:10169000992309F45BC040E0D6011196F6019083CE
:1016A0006D01552309F448C0012F060F9A81582F68
:1016B000507184FF03C0913309F4015010160CF0EF
:1016C00047C0093008F008E0EEE2FE2E5B01A01AE8
:1016D000B10885019194819491082F3F320729F434
:1016E000D601FC92F60131966F016217730794F1EF
:1016F000021713077CF5DB01A21BB30BAA24A394EA
:10170000B12CAC0EBD1EAA0DBB1D11968C912150A3
:101710003109D601119628153905F4F0F6018083B8
:101720006D01DBCFB12CA12CA0CFF701B1937F01CC
:10173000A150AACF9111B0CFD601942F50E302C08F
:101740005D9391509111FCCFC40ED11C40E0ACCF01
:1017500001E0BACF80E3DBCF6217730731F4963331
:1017600088F4953311F4552369F0F6018083FD0167
:10177000842F90E2811108C0A40FB11D1C9290E04B
:1017800080E003CF81E3F1CF91938150F3CF9111AA
:1017900083CF8ACF283008F027E03327DA01990F6A
:1017A000311D87FD916000966105710539F4326045
:1017B0002E5F3D9330E32A95E1F708959F3F30F087
:1017C00080387105610509F03C5F3C5F3D939130C5
:1017D00008F08068911DDF93CF931F930F93FF92C2
:1017E000EF92192F987F9695E92F96959695E90F88
:1017F000FF27E858FF4F99273327EE24FF24A7013E
:10180000E70105900894079428F4360FE71EF81EA8
:10181000491F511D660F771F881F991F0694A1F756
:101820000590079428F4E70EF81E491F561FC11DA6
:10183000770F881F991F661F0694A1F705900794DC
:1018400028F4F80E491F561FC71FD11D880F991F76
:10185000661F771F0694A1F70590079420F4490F9F
:10186000561FC71FD81F990F661F771F881F069422
:10187000A9F784911095177041F0D695C7955795A3
:101880004795F794E7941A95C1F7EEE1F0E0689474
:101890001590159135916591959105907FE273951D
:1018A000E118F10A430B560BC90BD009C0F7E10C44
:1018B000F11E431F561FC91FD01D7EF4703311F453
:1018C0008A95E6CFE894015030F0080F0AF400271B
:1018D000021708F4202F2395022F7A3328F079E39A
:1018E0007D932A95E9F710C07D932A9589F6069491
:1018F00097956795379517951794E118F10A430B5B
:10190000560BC90BD00998F023957E9173957A33C5
:1019100008F070E37C932013B8F77E9170617D939B
:1019200030F0839571E37D9370E32A95E1F71124FC
:10193000EF90FF900F911F91CF91DF91992787FD35
:10194000909508952F923F924F925F926F927F925F
:101950008F929F92AF92BF92CF92DF92EF92FF92BF
:101960000F931F93CF93DF93CDB7DEB7CA1BDB0B6B
:101970000FB6F894DEBF0FBECDBF09942A88398810
:1019800048885F846E847D848C849B84AA84B98417
:10199000C884DF80EE80FD800C811B81AA81B98123
:1019A000CE0FD11D0FB6F894DEBF0FBECDBFED0137
:1019B00008955058BB27AA270ED089C17AD130F09C
:1019C0007FD120F031F49F3F11F41EF46FC10EF46B
:1019D000E095E7FB3CC1E92F8BD180F3BA17620792
:1019E00073078407950718F071F49EF5BAC10EF4D9
:1019F000E0950B2EBA2FA02D0B01B90190010C011F
:101A0000CA01A0011124FF27591B99F0593F50F436
:101A1000503E68F11A16F040A22F232F342F44278E
:101A2000585FF3CF469537952795A795F040539586
:101A3000C9F77EF41F16BA0B620B730B840BBAF056
:101A40009150A1F0FF0FBB1F661F771F881FC2F7C1
:101A50000EC0BA0F621F731F841F48F487957795D5
:101A60006795B795F7959E3F08F0B3CF9395880F8C
:101A700008F09927EE0F9795879508955BD180F030
:101A80009F3740F491110EF46DC160E070E080E882
:101A90009FE3089526F01B16611D711D811DDDC099
:101AA000F7C00CD014C10CD140F003D130F021F4B8
:101AB0005F3F19F0CCC0511155C1F8C019D198F34E
:101AC0009923C9F35523B1F3951B550BBB27AA27BF
:101AD00062177307840738F09F5F5F4F220F331F31
:101AE000441FAA1FA9F333D00E2E3AF0E0E830D0FD
:101AF00091505040E695001CCAF729D0FE2F27D000
:101B0000660F771F881FBB1F261737074807AB07CD
:101B1000B0E809F0BB0B802DBF01FF2793585F4F42
:101B20002AF09E3F510568F092C01CC15F3FECF364
:101B3000983EDCF3869577956795B795F7959F5F07
:101B4000C9F7880F911D9695879597F90895E1E05B
:101B5000660F771F881FBB1F621773078407BA07BA
:101B600020F0621B730B840BBA0BEE1F88F7E09515
:101B7000089504D06894B111F5C00895C1D088F0DB
:101B80009F5790F0B92F9927B751A0F0D1F0660F69
:101B9000771F881F991F1AF0BA95C9F712C0B13084
:101BA00081F0DFD0B1E00895DCC0672F782F88275F
:101BB000B85F39F0B93FCCF3869577956795B395C3
:101BC000D9F73EF490958095709561957F4F8F4F32
:101BD0009F4F0895E89409C097FB3EF49095809537
:101BE000709561957F4F8F4F9F4F9923A9F0F92FE3
:101BF00096E9BB279395F695879577956795B79561
:101C0000F111F8CFFAF4BB0F11F460FF1BC06F5F46
:101C10007F4F8F4F9F4F16C0882311F096E911C058
:101C2000772321F09EE8872F762F05C0662371F079
:101C300096E8862F70E060E02AF09A95660F771F8D
:101C4000881FDAF7880F9695879597F9089597F981
:101C50009F6780E870E060E00895882371F477233F
:101C600021F09850872B762F07C0662311F499270F
:101C70000DC09051862B70E060E02AF09A95660FB7
:101C8000771F881FDAF7880F9695879597F908953B
:101C90009F3F31F0915020F4879577956795B795E0
:101CA000880F911D9695879597F908959FEF80EC81
:101CB000089500240A9416161706180609060895B2
:101CC00000240A9412161306140605060895092E18
:101CD0000394000C11F4882352F0BB0F40F4BF2B87
:101CE00011F460FF04C06F5F7F4F8F4F9F4F0895C7
:101CF00057FD9058440F551F59F05F3F71F04795BD
:101D0000880F97FB991F61F09F3F79F087950895A1
:101D1000121613061406551FF2CF4695F1DF08C0C0
:101D2000161617061806991FF1CF869571056105DD
:101D300008940895E5DFA0F0BEE7B91788F4BB2743
:101D40009F3860F41616B11D672F782F8827985F8B
:101D5000F7CF869577956795B11D93959639C8F31A
:101D60000895E894BB2766277727CB0197F9089554
:101D70000AD0ADCF9EDF28F0A3DF18F0952309F03D
:101D800066CF94CFEFCFB4DFA8F39923D9F35523CF
:101D9000C9F3950F50E0551FAA27EE27FF27BB2751
:101DA00000240894679520F4E20FF31FB41F0A1E65
:101DB000220F331F441FAA1F6695A9F7779530F4A9
:101DC000F30FB41F0A1E121E08F46395330F441F4D
:101DD000AA1F221F769599F7879520F4B40F0A1E43
:101DE000121E631F440FAA1F221F331F8695A9F7D7
:101DF000862F712D602D11249F5750408AF0E1F0FD
:101E000088234AF0EE0FFF1FBB1F661F771F881F36
:101E100091505040A9F79E3F510570F018CFA2CFC6
:101E20005F3FECF3983EDCF3869577956795B79521
:101E3000F795E7959F5FC1F7FE2B880F911D96954B
:101E4000879597F908950024552704C0080E591F57
:101E5000880F991F009729F076956795B8F371055B
:101E6000B9F7802D952F0895EE0FFF1F0590F4917F
:081E7000E02D0994F894FFCF66
:081E7800FF8181818181C33CDF
:00000001FF
